{
  "contractName": "FirstContract",
  "abi": [
    {
      "inputs": [
        {
          "internalType": "address",
          "name": "_address",
          "type": "address"
        }
      ],
      "stateMutability": "nonpayable",
      "type": "constructor"
    },
    {
      "inputs": [],
      "name": "sendTokenToContract",
      "outputs": [],
      "stateMutability": "payable",
      "type": "function",
      "payable": true
    },
    {
      "inputs": [],
      "name": "sendEtherToSender",
      "outputs": [],
      "stateMutability": "payable",
      "type": "function",
      "payable": true
    },
    {
      "inputs": [],
      "name": "getStorageValue",
      "outputs": [
        {
          "internalType": "uint256",
          "name": "",
          "type": "uint256"
        }
      ],
      "stateMutability": "view",
      "type": "function",
      "constant": true
    },
    {
      "inputs": [],
      "name": "getStorageOwner",
      "outputs": [
        {
          "internalType": "address",
          "name": "",
          "type": "address"
        }
      ],
      "stateMutability": "view",
      "type": "function",
      "constant": true
    }
  ],
  "bytecode": "0x6080604052670de0b6b3a764000060015534801561001c57600080fd5b50604051610545380380610545833981810160405281019061003e91906100e7565b806000806101000a81548173ffffffffffffffffffffffffffffffffffffffff021916908373ffffffffffffffffffffffffffffffffffffffff16021790555050610114565b600080fd5b600073ffffffffffffffffffffffffffffffffffffffff82169050919050565b60006100b482610089565b9050919050565b6100c4816100a9565b81146100cf57600080fd5b50565b6000815190506100e1816100bb565b92915050565b6000602082840312156100fd576100fc610084565b5b600061010b848285016100d2565b91505092915050565b610422806101236000396000f3fe60806040526004361061003f5760003560e01c80630c9f40791461004457806310bb130d1461004e5780638ae759771461005857806390ad7f5414610083575b600080fd5b61004c6100ae565b005b6100566100b0565b005b34801561006457600080fd5b5061006d610106565b60405161007a9190610275565b60405180910390f35b34801561008f57600080fd5b5061009861019d565b6040516100a591906102a9565b60405180910390f35b565b3373ffffffffffffffffffffffffffffffffffffffff166108fc600180546100d891906102f3565b9081150290604051600060405180830381858888f19350505050158015610103573d6000803e3d6000fd5b50565b60008060009054906101000a900473ffffffffffffffffffffffffffffffffffffffff1673ffffffffffffffffffffffffffffffffffffffff1663893d20e86040518163ffffffff1660e01b8152600401602060405180830381865afa158015610174573d6000803e3d6000fd5b505050506040513d601f19601f820116820180604052508101906101989190610366565b905090565b60008060009054906101000a900473ffffffffffffffffffffffffffffffffffffffff1673ffffffffffffffffffffffffffffffffffffffff1663209652556040518163ffffffff1660e01b8152600401602060405180830381865afa15801561020b573d6000803e3d6000fd5b505050506040513d601f19601f8201168201806040525081019061022f91906103bf565b905090565b600073ffffffffffffffffffffffffffffffffffffffff82169050919050565b600061025f82610234565b9050919050565b61026f81610254565b82525050565b600060208201905061028a6000830184610266565b92915050565b6000819050919050565b6102a381610290565b82525050565b60006020820190506102be600083018461029a565b92915050565b7f4e487b7100000000000000000000000000000000000000000000000000000000600052601160045260246000fd5b60006102fe82610290565b915061030983610290565b925082820261031781610290565b9150828204841483151761032e5761032d6102c4565b5b5092915050565b600080fd5b61034381610254565b811461034e57600080fd5b50565b6000815190506103608161033a565b92915050565b60006020828403121561037c5761037b610335565b5b600061038a84828501610351565b91505092915050565b61039c81610290565b81146103a757600080fd5b50565b6000815190506103b981610393565b92915050565b6000602082840312156103d5576103d4610335565b5b60006103e3848285016103aa565b9150509291505056fea2646970667358221220fa2f7c8fc77cc30fa1f2546e50e5b9e16f912322a5336444a829fd8c4250302d64736f6c63430008110033",
  "immutableReferences": {},
  "source": "// SPDX-License-Identifier: GPL-3.0\npragma solidity ^0.8.0;\nimport \"./Storage.sol\";\n\ncontract FirstContract{\nStorage st;\nconstructor(address _address){\nst=Storage(_address);\n}\n\nuint256 wi = 1000000000000000000;\n\nfunction sendTokenToContract() public payable {}\n\nfunction sendEtherToSender() public payable {\npayable(msg.sender).transfer((wi * 1));\n}\n\n\nfunction getStorageValue() public view returns(uint){\nreturn st.getValue();\n}\n\nfunction getStorageOwner() public view returns(address){\nreturn st.getOwner();\n\n}\n\n\n\n\n\n\n}\n",
  "sourcePath": "/home/oznzrl/Documents/cs_solidty/contracts/FirstContract.sol",
  "compiler": {
    "name": "solc",
    "version": "0.8.17+commit.8df45f5f.Emscripten.clang"
  },
  "schemaVersion": "3.4.11",
  "updatedAt": "2022-11-25T07:31:13.883Z",
  "networkType": "ethereum",
  "devdoc": {
    "kind": "dev",
    "methods": {},
    "version": 1
  },
  "userdoc": {
    "kind": "user",
    "methods": {},
    "version": 1
  }
}