{
  "contractName": "Storage",
  "abi": [
    {
      "inputs": [],
      "stateMutability": "nonpayable",
      "type": "constructor"
    },
    {
      "inputs": [
        {
          "internalType": "uint256",
          "name": "_val",
          "type": "uint256"
        }
      ],
      "name": "write",
      "outputs": [
        {
          "internalType": "uint256",
          "name": "",
          "type": "uint256"
        }
      ],
      "stateMutability": "nonpayable",
      "type": "function"
    },
    {
      "inputs": [],
      "name": "read",
      "outputs": [
        {
          "internalType": "uint256",
          "name": "",
          "type": "uint256"
        }
      ],
      "stateMutability": "pure",
      "type": "function",
      "constant": true
    }
  ],
  "bytecode": "0x608060405234801561001057600080fd5b5061016e806100206000396000f3fe608060405234801561001057600080fd5b50600436106100365760003560e01c80632f048afa1461003b57806357de26a41461006b575b600080fd5b610055600480360381019061005091906100e1565b610089565b604051610062919061011d565b60405180910390f35b61007361009c565b604051610080919061011d565b60405180910390f35b6000816000819055506000549050919050565b6000610b71905090565b600080fd5b6000819050919050565b6100be816100ab565b81146100c957600080fd5b50565b6000813590506100db816100b5565b92915050565b6000602082840312156100f7576100f66100a6565b5b6000610105848285016100cc565b91505092915050565b610117816100ab565b82525050565b6000602082019050610132600083018461010e565b9291505056fea26469706673582212205bb7adb965de300a43138c10439fc3efbffcb4009dc5f2ee99f8d1d1f1d39eb364736f6c63430008110033",
  "immutableReferences": {},
  "source": "// SPDX-License-Identifier: MIT\npragma solidity >=0.4.22 <0.9.0;\n\ncontract Storage {\n  constructor()  {\n  }\nuint val;\nfunction write(uint _val) public returns(uint){val=_val; return val;}\n\nfunction read() public pure returns(uint){return 2929;}\n}\n",
  "sourcePath": "/home/oznzrl/Documents/cs_solidty/contracts/Storage.sol",
  "compiler": {
    "name": "solc",
    "version": "0.8.17+commit.8df45f5f.Emscripten.clang"
  },
  "schemaVersion": "3.4.11",
  "updatedAt": "2022-11-24T11:28:15.789Z",
  "networkType": "ethereum",
  "devdoc": {
    "kind": "dev",
    "methods": {},
    "version": 1
  },
  "userdoc": {
    "kind": "user",
    "methods": {},
    "version": 1
  }
}