{
  "contractName": "Storage",
  "abi": [
    {
      "inputs": [],
      "stateMutability": "nonpayable",
      "type": "constructor"
    },
    {
      "anonymous": false,
      "inputs": [
        {
          "indexed": false,
          "internalType": "string",
          "name": "message",
          "type": "string"
        }
      ],
      "name": "OwnerChanged",
      "type": "event"
    },
    {
      "inputs": [],
      "name": "numValue",
      "outputs": [
        {
          "internalType": "uint256",
          "name": "",
          "type": "uint256"
        }
      ],
      "stateMutability": "view",
      "type": "function",
      "constant": true
    },
    {
      "inputs": [],
      "name": "getOwner",
      "outputs": [
        {
          "internalType": "address",
          "name": "",
          "type": "address"
        }
      ],
      "stateMutability": "view",
      "type": "function",
      "constant": true
    },
    {
      "inputs": [
        {
          "internalType": "address",
          "name": "_address",
          "type": "address"
        }
      ],
      "name": "changeOwner",
      "outputs": [],
      "stateMutability": "nonpayable",
      "type": "function"
    },
    {
      "inputs": [],
      "name": "getValue",
      "outputs": [
        {
          "internalType": "uint256",
          "name": "",
          "type": "uint256"
        }
      ],
      "stateMutability": "view",
      "type": "function",
      "constant": true
    },
    {
      "inputs": [
        {
          "internalType": "uint256",
          "name": "_numValue",
          "type": "uint256"
        }
      ],
      "name": "setValue",
      "outputs": [],
      "stateMutability": "nonpayable",
      "type": "function"
    }
  ],
  "bytecode": "0x608060405234801561001057600080fd5b5033600160006101000a81548173ffffffffffffffffffffffffffffffffffffffff021916908373ffffffffffffffffffffffffffffffffffffffff16021790555061059c806100616000396000f3fe608060405234801561001057600080fd5b50600436106100575760003560e01c8063209652551461005c578063400b69c51461007a5780635524107714610098578063893d20e8146100b4578063a6f9dae1146100d2575b600080fd5b6100646100ee565b60405161007191906102e3565b60405180910390f35b6100826100f7565b60405161008f91906102e3565b60405180910390f35b6100b260048036038101906100ad919061032f565b6100fd565b005b6100bc610197565b6040516100c9919061039d565b60405180910390f35b6100ec60048036038101906100e791906103e4565b6101c1565b005b60008054905090565b60005481565b600160009054906101000a900473ffffffffffffffffffffffffffffffffffffffff1673ffffffffffffffffffffffffffffffffffffffff163373ffffffffffffffffffffffffffffffffffffffff161461018d576040517f08c379a00000000000000000000000000000000000000000000000000000000081526004016101849061046e565b60405180910390fd5b8060008190555050565b6000600160009054906101000a900473ffffffffffffffffffffffffffffffffffffffff16905090565b600160009054906101000a900473ffffffffffffffffffffffffffffffffffffffff1673ffffffffffffffffffffffffffffffffffffffff163373ffffffffffffffffffffffffffffffffffffffff1614610251576040517f08c379a0000000000000000000000000000000000000000000000000000000008152600401610248906104da565b60405180910390fd5b80600160006101000a81548173ffffffffffffffffffffffffffffffffffffffff021916908373ffffffffffffffffffffffffffffffffffffffff1602179055507fc5857e0793af9e0b936336856d784101062ce2b928f1b57228c26a08ac826f566040516102bf90610546565b60405180910390a150565b6000819050919050565b6102dd816102ca565b82525050565b60006020820190506102f860008301846102d4565b92915050565b600080fd5b61030c816102ca565b811461031757600080fd5b50565b60008135905061032981610303565b92915050565b600060208284031215610345576103446102fe565b5b60006103538482850161031a565b91505092915050565b600073ffffffffffffffffffffffffffffffffffffffff82169050919050565b60006103878261035c565b9050919050565b6103978161037c565b82525050565b60006020820190506103b2600083018461038e565b92915050565b6103c18161037c565b81146103cc57600080fd5b50565b6000813590506103de816103b8565b92915050565b6000602082840312156103fa576103f96102fe565b5b6000610408848285016103cf565b91505092915050565b600082825260208201905092915050565b7f4d6f646966696572206d6573736167653a4f6e6c794f776e6572000000000000600082015250565b6000610458601a83610411565b915061046382610422565b602082019050919050565b600060208201905081810360008301526104878161044b565b9050919050565b7f52657175697265206d6573736167653a4f6e6c794f776e657200000000000000600082015250565b60006104c4601983610411565b91506104cf8261048e565b602082019050919050565b600060208201905081810360008301526104f3816104b7565b9050919050565b7f4f776e65724368616e6765640000000000000000000000000000000000000000600082015250565b6000610530600c83610411565b915061053b826104fa565b602082019050919050565b6000602082019050818103600083015261055f81610523565b905091905056fea2646970667358221220e1ee7bbb21531aa4f0a1aa9ec77475d019cf49894ccd4c4b217c3d1694f542d864736f6c63430008110033",
  "immutableReferences": {},
  "source": "// SPDX-License-Identifier: MIT\npragma solidity >=0.4.22 <0.9.0;\n\ncontract Storage {\n\nuint public numValue;\n\naddress owner;\n\nevent OwnerChanged(string message);\n\nconstructor(){\nowner=msg.sender;\n}\n\nmodifier onlyOwner{\n  require(msg.sender==owner,\"Modifier message:OnlyOwner\");\n  _;\n}\n\nfunction getOwner() public view  returns(address){\n  return owner;\n}\n\nfunction changeOwner(address _address) public{\n  require(msg.sender==owner,\"Require message:OnlyOwner\");\n  owner=_address;\n  emit OwnerChanged(\"OwnerChanged\");\n}\n\n\nfunction getValue()public view returns(uint){\n  return numValue;\n}\n\nfunction setValue(uint _numValue) public onlyOwner{\nnumValue=_numValue;\n}\n\n\n}\n",
  "sourcePath": "/home/oznzrl/Documents/cs_solidty/contracts/Storage.sol",
  "compiler": {
    "name": "solc",
    "version": "0.8.17+commit.8df45f5f.Emscripten.clang"
  },
  "schemaVersion": "3.4.11",
  "updatedAt": "2022-11-25T07:31:13.878Z",
  "networkType": "ethereum",
  "devdoc": {
    "kind": "dev",
    "methods": {},
    "version": 1
  },
  "userdoc": {
    "kind": "user",
    "methods": {},
    "version": 1
  }
}